:020000040800F2
:10000000C81400209D01000879690008C551000846
:1000100075690008810E00080DA8000800000000A6
:10002000000000000000000000000000779A0008B7
:1000300021190008000000003D6B0008799A0008B3
:10004000B7010008B7010008B7010008B7010008B0
:10005000B7010008B701000823190008B70100081C
:10006000B70100082D19000837190008B70100086A
:10007000B50E0008B7010008B7010008B701000875
:10008000B7010008B7010008B7010008950E000885
:10009000850E0008B7010008B701000841190008E3
:1000A000B7010008B7010008B7010008B701000850
:1000B000B70100080D9C0008B7010008B70100084F
:1000C000B7010008B7010008B7010008B701000830
:1000D000B70100086DA40008B7010008C9A6000810
:1000E000B7010008B7010008B7010008B701000810
:1000F000B7010008B7010008B7010008B701000800
:10010000B7010008B7010008B7010008B7010008EF
:10011000B7010008B7010008B7010008B7010008DF
:10012000B7010008B7010008C50E00085D170008F8
:10013000B7010008B7010008B7010008B7010008BF
:10014000A50E0008B7010008B7010008B7010008B4
:100150006D170008B70100087D170008B7010008F7
:10016000B7010008B7010008B7010008B70100088F
:10017000B7010008B7010008B7010008000000003F
:10018000B7010008B7010008DFF80CD000F0E0FB71
:1001900000480047F1E50008C814002006488047E1
:1001A00006480047FEE7FEE7FEE7FEE7FEE7FEE75C
:1001B000FEE7FEE7FEE7FEE7B59B000889010008C1
:1001C0002DE9F05F0546002092469B46884606468C
:1001D000814640241BE0284641464746224600F01F
:1001E00012FA53465A46C01A914110D31146184686
:1001F000224600F0F9F92D1A67EB01084F46224616
:100200000120002100F0F0F917EB00094E41201EFB
:10021000A4F10104DFDC484631462A464346BDE8E6
:10022000F09F40EA01039B0703D009E008C9121FB1
:1002300008C0042AFAD203E011F8013B00F8013BA0
:10024000521EF9D27047D2B201E000F8012B491ECC
:10025000FBD270470022F6E710B513460A46044663
:100260001946FFF7F0FF204610BD2DE9FE4F8046EE
:1002700081EA0300C00F0C46009021F0004123F0FA
:100280000045B8EB0200A94105D240462146904600
:100290001C460B46024623F00040104347D0270D72
:1002A000C7F30A00C3F30A510290401A0190402894
:1002B0006BDAC3F3130040F4801B0098924620B120
:1002C0000023D2EB030A63EB0B0B01985946C0F1F4
:1002D0004002504600F088F906460D465046594601
:1002E000019A00F0A0F910EB08006141002487EAB0
:1002F000115284EAE7731A4340D0009A62B3019A1C
:10030000012A4FEA075215DC001B61EB02014FF096
:10031000004202EA0752CDE90042001C41F580117B
:1003200032462B4600F0D7F903B0BDE8F08F4046C7
:100330002146F9E7001B61EB0201001C41F5801327
:1003400000185B412018A2F5001747EB030140EAB3
:10035000D570B6196D4111E06D084FEA360645EAD1
:10036000C0754FEA0752001B61EB0201001C41F50A
:10037000801149084FEA30000019514132462B469E
:1003800003B0BDE8F04F00F097B90098012240009B
:100390000023D0EB020263EBE073009821464FEAA2
:1003A000E074B8EB000061EB0401E9E783F000437F
:1003B0005BE781F0004158E72DE9FE4F81EA030435
:1003C00004F0004421F0004100944FF0000B23F0B2
:1003D000004350EA01045ED052EA03045BD0C3F349
:1003E0000A54C1F30A552C44A4F2F3340194A0FB3F
:1003F0000254C1F3130141F48011C3F3130343F416
:10040000801301FB024400FB034E840A970A44EA6E
:10041000815447EA8357A4FB076802958D0A05FBC0
:1004200007854FEA932C04FB0C542705029D4FEAE5
:10043000065847EA1637B5EB08056EEB070C870E32
:10044000920E47EA811742EA8312A7FB0201B6EB3C
:100450000B0164EB00042B0D43EA0C335E1844EBF4
:100460001C50DA465146E7FB0201C5F313044FEA7C
:100470000B3343EA14534FEA0432019C43EA060368
:10048000A4F10C040294009CCDE900B400F023F91F
:1004900003B0BDE8F08F00200146F9E70EB5C10FAB
:1004A00080EAE0700844CA07002140F233438DE837
:1004B0000E000A460B4600F00EF903B000BD70B501
:1004C000C1F30A5201F000450024C1F3130140F2C8
:1004D000FF3341F480119A4201DA002070BD40F2EE
:1004E00033439A42A2F2334203DC524200F08BF8CB
:1004F00000E090402C43F1D0404270BD00F000423B
:1005000030F000400AD0C10D01F56071C0F3160053
:1005100042EA0151C20840071143704700200146DA
:100520007047000030B5041E71F1000404DB4FF089
:100530000044404264EB0101141E73F1000405DB2A
:100540001C464FF00043524263EB04038B4208BF4A
:10055000824230BD30B5041E71F1000404DB4FF05F
:100560000044404264EB0101141E73F1000405DBFA
:100570001C464FF00043524263EB0403994208BF0C
:10058000904230BD01F0004330B421F0004150EA08
:10059000010206D00A0DA2F56072C1F31301002A10
:1005A00002DC30BC00207047440F44EAC104C100A3
:1005B000E01830BC00EBC25000F047B830B50B4635
:1005C000014600202022012409E021FA02F59D4283
:1005D00005D303FA02F5491B04FA02F52844151E57
:1005E000A2F10102F1DC30BD202A04DB203A00FA3E
:1005F00002F1002070479140C2F1200320FA03F37A
:10060000194390407047202A04DB203A21FA02F077
:100610000021704721FA02F3D040C2F1200291403C
:10062000084319467047202A06DBCB17203A41FAC7
:1006300002F043EAE07306E041FA02F3D040C2F16F
:10064000200291400843194670470029A8BF70470F
:10065000401C490008BF20F00100704710B4B0FAF8
:1006600080FC00FA0CF050EA010404BF10BC704793
:1006700049B1CCF1200421FA04F411FA0CF118BFAD
:10068000012121430843A3EB0C01CB1D4FEA00617C
:100690004FEA102042BF002010BC704700EBC3504F
:1006A00010440029A4BF10BC7047401C490008BF7B
:1006B00020F0010010BC704710B5141E73F1000447
:1006C00008DA401C41F1000192185B411A4301D144
:1006D00020F0010010BD2DE9F04D92469B4611B16E
:1006E000B1FA81F202E0B0FA80F220329046FFF7D0
:1006F0007BFF04460F4640EA0A0041EA0B015346DD
:100700005A46084313D0114653EA010019D0C8F1E4
:1007100040025046FFF777FF05460E4650465946C1
:100720004246FFF761FF084305D0012004E0204660
:100730003946BDE8F08D0020054346EAE0762C43BB
:1007400037430A986305E40AA0EB08000022FD0A7B
:1007500044EA47540A3002D500200146E9E7010582
:1007600010196941DDE9084500196941BDE8F04DFE
:10077000A2E72DE9F04D81EA030404F0004B21F0DB
:10078000004514464FF0000A23F0004150EA0502EC
:1007900020D054EA01021DD0C5F30A570246C5F322
:1007A0001303C1F31300C1F30A5640F4801543F458
:1007B0008013A7EB0608101BD64608F2FD3873EB32
:1007C000050002D308F1010801E092185B41B8F17D
:1007D000000F03DA00200146BDE8F08D00204FF441
:1007E0008011064684460EE0171B73EB050705D300
:1007F000121B63EB050306434CEA010C49084FEA60
:10080000300092185B4150EA0107EDD152EA030033
:1008100012D082EA040083EA0501084305D0101BC8
:10082000AB4106D20122002306E000224FF0004334
:1008300002E06FF0010253101AEB06004CEB085176
:1008400010EB0A0041EB0B01BDE8F04DFFF734BFA0
:1008500070B521F0004303430CD0C1F30A550024C6
:10086000D5EB040564EB0403D617AD1AB34102DBE4
:100870000020014670BD201841EB025170BD2DE9EA
:10088000F04D00231A461B1A8A4103DB0020014663
:10089000BDE8F08DC1F30A52C1F3130141F4801594
:1008A0004FF0000BD10702D100186D41521E0027F6
:1008B000044640F2FF11384601EB620A3E4680468C
:1008C000024600204FF48011FFF79DFEC2197141CE
:1008D000BB1846EB0100B4EB030C75EB000C04D322
:1008E000E41A65EB000517460E46241908F10100CD
:1008F0006D4180463428E3DDF91946EB0600091BFB
:10090000A84103D24FF0FF32134601E00022134604
:100910001BEB070046EB0A51BDE8F04DFFF7CCBEDC
:10092000C1F30A52C1F3130140F2FF3341F48011C5
:100930009A4202DA00200146704740F233439A425D
:10094000A2F2334202DC5242FFF75DBEFFF74CBE1B
:10095000064C074D06E0E06840F0010394E807000C
:1009600098471034AC42F6D3FFF712FCD0F00008E1
:10097000F0F0000870B58C1810F8015B15F0070353
:1009800001D110F8013B2A1106D110F8012B03E028
:1009900010F8016B01F8016B5B1EF9D12B0705D430
:1009A0000023521E0DD401F8013BFAE710F8013B79
:1009B000CB1A921C03E013F8015B01F8015B521E95
:1009C000F9D5A142D8D3002070BD0000B7EE000ACF
:1009D00080ED000A9FED060A80ED010A9FED040AF2
:1009E00080ED020A9FED020A80ED030A70470000C5
:1009F000000000002DE9F0412DED028B0646B0EE1F
:100A0000408A0C4615461F4695ED023AF0EE432A01
:100A100095ED013AB0EE432A95ED003AF0EE431A17
:100A200094ED023AB0EE431A94ED013AF0EE430A27
:100A300094ED003AB0EE430A9FED064ADFED053A29
:100A40009FED043A304605F041FBBDEC028BBDE85A
:100A5000F08100000000000010B5012210210248C2
:100A600002F044FC10BD00000000024010B500225E
:100A70001021024802F03AFC10BD000000000240C4
:100A80007047000010B501221146024802F02EFC0A
:100A900010BD00000004024010B5002201210248F0
:100AA00002F024FC10BD00000004024010B54378A1
:100AB0001B021BB20478234300EE103AB8EEC01AB2
:100AC0001C4BD3ED001A21EE211A81ED001AC378D8
:100AD0001B021BB28478234300EE103AB8EEC01A12
:100AE000144BD3ED001A21EE211A81ED011A43793E
:100AF0001B021BB20479234300EE103AB8EEC01A71
:100B00000C4BD3ED001A21EE211A81ED021A037A63
:100B10001B04C47943EA04238479234300EE903A0A
:100B2000B8EE601ADFED041A21EE211A82ED001AE8
:100B300010BD00005003002000401C42704710B55B
:100B4000044620460CF008FC10BD10B504462046B3
:100B50000CF02AFC10BD00004278120212B2037899
:100B60001A4300EE102AF8EEC00A144A92ED001A59
:100B700060EE810AC1ED000AC278120212B28378D7
:100B80001A4300EE102AF8EEC00A0C4A92ED001A41
:100B900060EE810AC1ED010A4279120212B20379B4
:100BA0001A4300EE102AF8EEC00A044A92ED001A29
:100BB00060EE810AC1ED020A704700005403002074
:100BC00010B50024FFF75CFFFFF7B8FF0BF0CCFD7A
:100BD00010B144F0800402E00BF02CFD04430BF054
:100BE000BBFF10B144F0400402E00BF03BFF0443B4
:100BF000204610BD2DE9FC4105460E461746002053
:100C000000900190FFF732FF922000F0D1F8062209
:100C10006946122000F0ACF8FFF71EFF9DF80100B6
:100C2000000200B29DF8001040EA010400EE104AF4
:100C3000B8EEC00A4C48D0ED000A20EE200A86ED3E
:100C4000000A9DF80300000200B29DF8021040EA7D
:100C5000010400EE104AB8EEC00A4348D0ED000A85
:100C600020EE200A86ED010A9DF80500000200B280
:100C70009DF8041040EA010400EE104AB8EEC00AE4
:100C80003948D0ED000A20EE200A86ED020AFFF76F
:100C900003FF08226946002000F06AF8FFF7F2FE21
:100CA0009DF800000F2838D19DF80300000200B223
:100CB0009DF8021040EA010400EE104AB8EEC00AA6
:100CC0002A48D0ED000A20EE200A85ED000A9DF8A2
:100CD0000500000200B29DF8041040EA010400EE95
:100CE000104AB8EEC00A2148D0ED000A20EE200AD2
:100CF00085ED010A9DF80700000200B29DF806107C
:100D000040EA010400EE104AB8EEC00A1748D0EDE0
:100D1000000A20EE200A85ED020AFFF7A7FEA220B6
:100D200000F046F802226946222000F021F8FFF781
:100D300093FE9DF80000C0009DF8011040EA611488
:100D4000B4F5806F02DBA4F5006004B200EE104A37
:100D5000F8EEC00AB4EE001AB3EE070A00EE810AFC
:100D600087ED000ABDE8FC815003002054030020F9
:100D700070B506460C46154646F0800000F018F89F
:100D800006E0552000F014F82070641C681EC5B2FF
:100D9000002DF6D170BD70B504460D4644F08000BC
:100DA00000F006F8552000F003F8287070BD000030
:100DB00001B582B04FF47A70012301AA02A9009014
:100DC000024803F0CFFA9DF804000EBD3404002061
:100DD00010B502461378DB00547843EA6410B0F58E
:100DE000806F02DBA0F5006318B200EE100AF8EE87
:100DF000C00AB4EE001AB3EE070A00EE810A81EDD4
:100E0000000A10BD70B505460C462846FFF7D0FF16
:100E10002046FFF7CDFF70BD10B58AB00024012039
:100E20000590002000900190029003900690012010
:100E300008900790002004900E20099069460E4803
:100E400001F000F904460F20059069460B4801F0B7
:100E5000F9F80446084801F0E0FD084801F0DDFD1E
:100E60000221054801F05AF80221044801F056F821
:100E700020460AB010BD000090030020B8030020F7
:100E800000BFFEE710B5024801F040FA10BD0000B7
:100E90009003002010B5024801F038FA10BD0000A0
:100EA0009003002010B5024801F030FA10BD000098
:100EB000B803002010B5024801F03AFE10BD000052
:100EC0000C08002010B5FE48C06C0068FD4988423F
:100ED00076D9FC4854380068F949C96C0968FA4A5F
:100EE000914201D1202169E0F549C96C0968F54AB0
:100EF000483A914201D1202160E0F149C96C09686A
:100F0000F14A6032914201D1202157E0EC49C96C8D
:100F10000968EC4A1832914201D120214EE0E8499B
:100F2000C96C0968E84A1832914201D1C91445E0F8
:100F3000E349C96C0968E34A303A914201D1C914C6
:100F40003CE0DF49C96C0968DF4A7832914201D13F
:100F5000C91433E0DA49C96C0968DA4A303291427F
:100F600001D1C9142AE0D649C96C0968D64A303281
:100F7000914202D14FF4001120E0D149C96C0968B7
:100F8000D04A183A914202D14FF4001116E0CC49F0
:100F9000C96C0968CC4A9032914202D14FF40011D9
:100FA0000CE0C749C96C0968C64A4832914203D16E
:100FB0004FF4001102E003E04FF00061084070E1DF
:100FC000BF48C06C0068C049A831884276D9BD4886
:100FD00058380068BA49C96C0968BB4A914201D1C6
:100FE000202169E0B649C96C0968B64A483A91427D
:100FF00001D1202160E0B249C96C0968B24A60326F
:10100000914201D1202157E0AD49C96C0968AD4A30
:101010001832914201D120214EE0A949C96C0968DA
:10102000A94A1832914201D1C91445E0A449C96CBA
:101030000968A44A303A914201D1C9143CE0A04960
:10104000C96C0968A04A7832914201D1C91433E0D1
:101050009B49C96C09689B4A3032914201D1C9143D
:101060002AE09749C96C0968974A3032914202D107
:101070004FF4001120E09249C96C0968914A183A6E
:10108000914202D14FF4001116E08D49C96C0968F4
:101090008D4A9032914202D14FF400110CE0884900
:1010A000C96C0968874A4832914203D14FF4001154
:1010B00002E003E04FF000610840F2E08048C06CBD
:1010C000006881494831884276D97F4810384068A5
:1010D0007B49C96C09687C4A914201D1202169E0B1
:1010E0007749C96C0968774A483A914201D1202171
:1010F00060E07349C96C0968734A6032914201D15A
:10110000202157E06E49C96C09686E4A1832914235
:1011100001D120214EE06A49C96C09686A4A183237
:10112000914201D1C91445E06549C96C0968654A15
:10113000303A914201D1C9143CE06149C96C096857
:10114000614A7832914201D1C91433E05C49C96CDB
:1011500009685C4A3032914201D1C9142AE05849E9
:10116000C96C0968584A3032914202D14FF40011DB
:1011700020E05349C96C0968524A183A914202D199
:101180004FF4001116E04E49C96C09684E4A90327E
:10119000914202D14FF400110CE04949C96C096831
:1011A000484A4832914203D14FF4001102E003E073
:1011B0004FF00061084074E043481038006840492F
:1011C000C96C0968404A914201D1202168E03C493C
:1011D000C96C09683B4A483A914201D120215FE03D
:1011E0003749C96C0968384A6032914201D12021DF
:1011F00056E03349C96C0968324A1832914201D12C
:1012000020214DE02E49C96C09682F4A18329142BD
:1012100001D1C91444E02A49C96C0968294A303A05
:10122000914201D1C9143BE02549C96C0968264A9D
:101230007832914201D1C91432E02149C96C096860
:10124000204A3032914201D1C91429E01C49C96CAD
:1012500009681D4A3032914202D14FF400111FE05B
:101260001749C96C0968174A183A914202D14FF4DC
:10127000001115E01249C96C0968134A9032914275
:1012800002D14FF400110BE00D49C96C09680D4AF9
:101290004832914202D14FF4001101E04FF0006159
:1012A000084000286FD00648C06C00680549884295
:1012B0007BD90348C06C00680349884208D105E027
:1012C000340400205864024010600240202068E08E
:1012D000FE48C06C0068FE49884201D1202060E0D1
:1012E000FA48C06C0068FB49884201D1202058E0D0
:1012F000F648C06C0068F6496031884201D1202070
:101300004FE0F248C06C0068F2494839884201D188
:10131000C01446E0ED48C06C0068ED4918318842C1
:1013200001D1C0143DE0E948C06C0068E9491831BA
:10133000884201D1C01434E0E448C06C0068E4493C
:101340007831884201D1C0142BE0E048C06C0068BD
:10135000E0493039884202D14FF4001021E0DB48E7
:10136000C06C0068DA493031884202D14FF4001075
:1013700017E0D648C06C0068D6493031884204D1A5
:101380004FF400100DE0DFE10FE0D048C06C0068C2
:10139000CF499031884202D14FF4001001E04FF064
:1013A0000060CB49091F08606AE1C848C06C00684A
:1013B000C8494831884274D9C448C06C0068C549DE
:1013C0006039884201D1202066E0C048C06C0068C6
:1013D000BF49884201D120205EE0BC48C06C006853
:1013E000BC49884201D1202056E0B848C06C006852
:1013F000B7496031884201D120204DE0B348C06C2C
:101400000068B4494839884201D1C01444E0AF486B
:10141000C06C0068AE491831884201D1C0143BE06D
:10142000AA48C06C0068AB491831884201D1C01489
:1014300032E0A648C06C0068A5497831884201D1E5
:10144000C01429E0A148C06C0068A2493039884224
:1014500002D14FF400101FE09C48C06C00689C490A
:101460003031884202D14FF4001015E09748C06C2B
:10147000006898493031884202D14FF400100BE0E7
:101480009248C06C006892499031884202D14FF472
:10149000001001E04FF000608D4908390860EFE06E
:1014A000FFE78A48C06C00688A491839884274D9B5
:1014B0008648C06C006887496039884201D1202085
:1014C00066E08248C06C00688149884201D12020D2
:1014D0005EE07E48C06C00687E49884201D12020D1
:1014E00056E07A48C06C006879496031884201D181
:1014F00020204DE07548C06C006876494839884224
:1015000001D1C01444E07148C06C006870491831C2
:10151000884201D1C0143BE06C48C06C00686D4942
:101520001831884201D1C01432E06848C06C0068AC
:1015300067497831884201D1C01429E06348C06C02
:10154000006864493039884202D14FF400101FE02E
:101550005E48C06C00685E493031884202D14FF469
:10156000001015E05948C06C00685A493031884273
:1015700002D14FF400100BE05448C06C006854498D
:101580009031884202D14FF4001001E04FF000602A
:1015900050497039C86073E0FFE74C48C06C006880
:1015A0004C496039884201D1202066E04748C06C30
:1015B00000684749884201D120205EE04348C06C62
:1015C00000684449884201D1202056E03F48C06C61
:1015D00000683F496031884201D120204DE03B48FE
:1015E000C06C00683B494839884201D1C01444E0CE
:1015F0003648C06C006836491831884201D1C014A1
:101600003BE03248C06C006832491831884201D151
:10161000C01432E02D48C06C00682D4978318842F2
:1016200001D1C01429E02948C06C0068294930392B
:10163000884202D14FF400101FE02448C06C0068BB
:1016400023493031884202D14FF4001015E01F4881
:10165000C06C00681F493031884202D14FF400103D
:101660000BE01A48C06C006819499031884202D1D9
:101670004FF4001001E04FF00060164970398860A7
:101680001548007800F0020078B11348007820F087
:101690000200114908700846007840F00400087004
:1016A000012211460D4801F021FE0D48007800F09E
:1016B0000200E0B10A48007820F0020008490870F2
:1016C0000846007840F0040008700BE03404002065
:1016D000106402407060024041000020000402409B
:1016E0004200002001221021184801F0FFFD184897
:1016F000007800F0020078B11548007820F0020070
:10170000134908700846007840F004000870012270
:1017100010210E4801F0EAFD0CF050FB0D48007856
:1017200000F0040080B10B48007820F00400094963
:1017300008700846007840F0080008700648006805
:1017400040F001000449086010BD000000000240A4
:101750004300002041000020103C014010B5024829
:1017600001F0E6F910BD0000EC04002010B50248BD
:1017700001F0DEF910BD00004C07002010B5024852
:1017800001F0D6F910BD0000AC07002001680A4B3B
:10179000CAB2103AA3FB02321209084B9B5CC36524
:1017A000032A04D96FF30901091D816502E06FF373
:1017B00009018165806D7047ABAAAAAA19F00008DB
:1017C000014600208A6A8B69002B0FD0B3F5005FB9
:1017D0001DD08AB3012A30D0022A2ED0032A04D188
:1017E000C96A11F0807F00D0012070471AB1012A28
:1017F00007D0022AF9D1C96A11F0807FF5D0012003
:101800007047C96AB1F1C07FFAD1012070475AB15F
:10181000012A0BD0022A07D0032AF7D1C96AB1F1F5
:10182000C07FF3D10120704701207047C96A11F0D1
:10183000807FFAD001207047FFE701207047000049
:1018400010B51F4890ED4D0ADFED1E0A20EE200A6C
:10185000BDEEC00A1C4880ED000A1C4890ED4D0A00
:10186000DFED180A20EE200ABDEEC00A184880ED10
:10187000000A18480078184908602A20174908709B
:1018800011480088000A88700F4800784870104896
:101890000088000A08710E480078C8700E48008859
:1018A000000A88710C48007848713B20C871FF23FA
:1018B00008220B4803F018FC0A49087010BD00000C
:1018C000580B00200000C8420C010020AC0C002086
:1018D0001001002009010020140100200001002057
:1018E0004C0600200801002010B4D0F800C0DCF83D
:1018F000004024F48024CCF80040D0F800C0CCF89C
:1019000004308368402B05D0036899600068C2608A
:1019100010BC704703689A600068C16010BC7047D3
:10192000704710B5012001F0C7FB10BD10B50820AD
:1019300001F0C2FB10BD10B5102001F0BDFB10BDC1
:1019400010B5202001F0B8FB10BD7047002200291F
:1019500005D001291AD002291BD04FF440720E493C
:101960000B6823F440730B600B681A430A600A6823
:1019700022F0F8020A600A68022343EAC00010431A
:101980000860086840F48030086070474FF4807247
:10199000E5E74FF40072E2E7103C024014480168AA
:1019A00011F4007F0FD0016821F40071016001681B
:1019B00041F400610160016821F400610160016887
:1019C00041F400710160016811F4806F0FD001686B
:1019D00021F480610160016841F480510160016877
:1019E00021F480510160016841F480610160704719
:1019F000003C024008490A6822F440720A600A6802
:101A000042F004020A600A684FF4803343EA00207F
:101A10001043086070470000103C0240064A1368FB
:101A200023F44073136013681360136843F00103D9
:101A30001360017070470000103C02400A49D1F861
:101A400000C02CF4407CC1F800C0D1F800C04CF4B8
:101A5000407CC1F800C0D1F800C04CF0010CC1F8C6
:101A600000C0026043607047103C0240074A1368A0
:101A700023F440731360136843F480731360136896
:101A800043F001031360018070470000103C0240E6
:101A9000074A136823F440731360136843F4007318
:101AA0001360136843F00103136001607047000086
:101AB000103C02401A49086810F0100F194805D070
:101AC000C26942F01002C26110220A600A6812F074
:101AD000200F05D0C26942F00802C26120220A60CC
:101AE0000A6812F0400F05D0C26942F00402C261D8
:101AF00040220A600A6812F0800F05D0C26942F0E5
:101B00000202C26180220A600A6812F0020F05D048
:101B1000C26942F02002C2610220086070470000E2
:101B20000C3C0240A410002070B50446144900206B
:101B3000C86101F0E3FB0646124D286810F4803FAF
:101B40000ED0B4F1FF3F07D024B101F0D7FB801BCA
:101B5000A04201D9032070BD286810F4803FF0D165
:101B6000286810F0010F01D001202860286810F0CB
:101B7000F20F03D0FFF79EFF012070BD002070BD63
:101B8000A41000200C3C02403A48808800EE100A65
:101B9000F8EE400A9FED381A80EE810ADFED370A31
:101BA00020EE200A364880ED510A90ED510A314866
:101BB000D0ED030AF8EEE00A9FED301A00EE810A3C
:101BC0002F4880ED520A2B48B0F9060000EE100AAB
:101BD000B8EEC00A2A4880ED500A2A4890ED000A63
:101BE000DFED290A80EE201A9FED240A21EE000A7B
:101BF000234880ED4D0A254890ED020AF6EE000AD2
:101C000020EE200A1E4880ED4F0A2148808800EE11
:101C1000100AF8EE400A9FED181A80EE810ADFEDF7
:101C2000170A20EE200A1B4880ED510A1848B0F927
:101C3000060000EE100AB8EEC00A164880ED500A01
:101C40001048D0ED020A9FED101A80EE810ADFEDF8
:101C50000B0A20EE200A0F4880ED4D0A0B4890ED4C
:101C6000010AFFEE000A20EE200A0A4880ED4F0A22
:101C7000704700006C08002000F8FF450000B443E6
:101C8000580B0020CC0A0020D00FC940980A002031
:101C90007C080020AC0C002010B52D4890F85201B3
:101CA00010B92B480BF023FF294890F85201012866
:101CB0002ED1274890ED4C0AD0ED4D0A30EE600A47
:101CC000DFED240AB4EEE00AF1EE10FA07DD90ED44
:101CD0004C0ADFED210A30EE600A80ED4C0A1C4808
:101CE00090ED4C0AD0ED4D0A30EE600ADFED1B0A94
:101CF000B4EEE00AF1EE10FA07D290ED4C0ADFEDF7
:101D0000160A30EE200A80ED4C0A11480BF0C8FE8E
:101D10000F4890F85201022802D10D480BF098FEAE
:101D20000F4890F8520110B90D480BF0E0FE0C4836
:101D300090F85201012802D109480BF0B1FE084881
:101D400090F85201022802D105480BF059FE10BD4F
:101D5000580B0020000034430000B443000034C39B
:101D6000AC0C002010B508F053FD0BF045FD10BD84
:101D700010B52748007800B910BD0BF0CFFE2448FD
:101D8000007838B90120234981F85201224981F8AD
:101D900052013AE01E480078052807D100201D496D
:101DA00081F852011C4981F852012EE01848007850
:101DB000022807D10120174981F85201164981F8FC
:101DC000520122E012480078032807D1012011496E
:101DD00081F85201104981F8520116E00C48007850
:101DE000042807D102200B4981F852010A4981F8E1
:101DF00052010AE006480078012806D10020054972
:101E000081F85201044981F8520100BFB4E7000093
:101E100028010020580B0020AC0C002010B508F061
:101E200077FD0220254908709FED250A254880EDA1
:101E30004D0A9FED230A80ED4F0A9FED210A80EDA8
:101E4000510A9FED1F0A80ED500A9FED1D0A80ED9B
:101E50004C0A9FED1B0A80ED4E0A9FED190A80ED9A
:101E6000530A00201749A1F85001012081F85201BE
:101E70009FED130A144880ED4D0A9FED110A80ED85
:101E80004F0A9FED0F0A80ED510A9FED0D0A80ED7C
:101E9000500A9FED0B0A80ED4C0A9FED090A80ED78
:101EA0004E0A9FED070A80ED530A00200649A1F86B
:101EB0005001012081F8520110BD000028010020CE
:101EC00000000000580B0020AC0C002010B5FFF7FC
:101ED0005BFEFFF74DFFFFF745FFFFF7DDFE0C4808
:101EE000B0F85001A0F6C41000B20949A1F85001A1
:101EF000084AB2F95011064AB2F950010BF050F9F4
:101F000000EE100AB8EE400A034880ED000A10BD4A
:101F1000AC0C0020580B0020FC01002090F8202081
:101F2000012A07D0022A05D0416A41F4802141628A
:101F300001207047006842691143416100207047E9
:101F400070B490F82040D0F800C0DCF808C0012C34
:101F500008D0022C06D0416A41F48021416270BC55
:101F6000012070470CF080640CF000652C4302D116
:101F70001CF0805F5FD0CCF3016CBCF1020F06D97E
:101F8000416A41F40001416270BC012070470124A4
:101F900004FA0CF41C608B684FF4C0749BB1CD68DC
:101FA00004EB0C162B434D6843EAC5030568AB519F
:101FB0004FF4C273066803EB0C130D69F550097DED
:101FC000012909D00DE00D88CB6804EB0C1643EA1B
:101FD00045530568AB51EBE70168CD5845F4807572
:101FE000CD501179D379557941EA036193791B0476
:101FF00043EA052319434FF4C675036805EB0C1536
:1020000059511178D37841EA0361937852781B04CF
:1020100043EA022211434FF4C473026803EB0C132A
:10202000D150016804EB0C100A5842F001020A502A
:1020300070BC00207047416A41F40011416270BCDD
:102040000120704790F82020012A07D0022A05D0ED
:10205000416A41F480214162012070474248D0F832
:10206000002242F00102C0F80022D0F8002222F43F
:102070007C52C0F80022D0F800224B6A42EA0322C8
:10208000C0F800220A7D012302F01F0203FA02F2C7
:10209000D0F81C329343C0F81C32CB69D3B9D0F8C6
:1020A0000C329343C0F80C32B1F80CC04B686CF39F
:1020B0001F43D1F814C000EBCC0CCCF84032B1F87F
:1020C00008C00B686CF31F43D1F814C000EBCC0CB4
:1020D000CCF84432CB69012B1AD1D0F80C3213431F
:1020E000C0F80C32B1F800C04B686CF31F43D1F854
:1020F00014C000EBCC0CCCF84032B1F808C0CB686F
:102100006CF31F43D1F814C000EBCC0CCCF8443274
:102110008B697BB1D0F804321343C0F804320B69E9
:1021200073B1D0F814321343C0F81432096A01298C
:102130000CD010E0D0F804329343C0F80432EEE73C
:10214000D0F814329343C0F81432EFE7D0F81C12E1
:102150001143C0F81C12D0F8001221F00101C0F8A0
:10216000001200207047000000640040704710B467
:1021700090F820C0BCF1010F09D0BCF1020F06D0CD
:10218000416A41F48021416210BC0120704739B19D
:10219000D0F800C0DCF810C01CF0030F7DD006E0C2
:1021A000D0F800C0DCF80CC01CF0030F7BD04FF45B
:1021B000D87C04680CEB011C54F80C4004F00404B7
:1021C0009460002C7DD0046854F80C40E4085460FE
:1021D000046854F80CC0CCF3400CC2F80CC04FF4A7
:1021E000DA7C04680CEB011C54F80C4004F00F047A
:1021F0001461046854F80C40C4F307249461046823
:1022000054F80CC04FEA1C4CC2F814C04FF4DC72F6
:10221000D0F800C002EB01125CF802C083F800C0E5
:10222000D0F800C05CF802C04FEA1C2C83F801C053
:10223000D0F800C05CF802C04FEA1C4C83F802C022
:10224000D0F800C05CF80220120EDA704FF4DE7293
:10225000D0F800C002EB01125CF802C083F804C0A1
:10226000D0F800C05CF802C04FEA1C2C83F805C00F
:10227000D0F800C05CF802C04FEA1C4C83F806C0DE
:10228000D0F800C05CF80220120EDA71F9B10068D3
:10229000016941F02001016102E00BE003E010E080
:1022A00010BC00207047416A41F40011416210BC2B
:1022B00001207047416A41F40011416210BC0120C5
:1022C0007047046854F80C40640D146080E700689F
:1022D000C16841F02001C160DEE70246002092F8AB
:1022E0002010012901D002290FD111688A6812F04B
:1022F000806F00D001208A6812F0006F00D0401C6F
:10230000896811F0805F00D0401C70472DE9F05FB4
:102310000546002428684669D0F804908768D0F8FC
:102320000CA0D0F810B0D0F8188016F0010F54D0DF
:1023300017F0010F17D00121816017F0020F03D0B1
:10234000284600F09DFB0EE017F0040F02D04FF47A
:10235000006408E017F0080F02D04FF4805402E048
:10236000284600F08CFB17F4807F19D029684FF4C1
:102370008070886017F4007F03D0284600F082FB4D
:102380000EE017F4806F02D044F4005408E017F414
:10239000006F02D044F4804402E0284600F071FB54
:1023A00017F4803F19D029684FF48030886017F403
:1023B000003F03D0284600F067FB0EE017F4802FA3
:1023C00002D044F4004408E017F4002F02D044F493
:1023D000803402E0284600F056FB16F0080F07D0C4
:1023E0001AF0100F04D044F4007429681020C8605B
:1023F00016F0040F4FF0080707D01AF0080F04D0AA
:102400002868C760284600F007FA16F0020F07D0C8
:102410002868C06810F0030F02D0284600F0FEF9CB
:1024200016F0400F07D01BF0100F04D044F4806466
:1024300029681020086116F0200F07D01BF0080F44
:1024400004D028680761284600F0E4FA16F0100F5F
:1024500007D02868006910F0030F02D0284600F06A
:10246000DAFA16F4003F08D019F0100F05D02968E9
:1024700010204860284600F0CFFA16F4803F07D0BD
:1024800019F0080F04D028684760284600F0FDFACC
:1024900016F4004F4AD019F0040F44D016F4807F90
:1024A00004D018F0010F01D044F0010416F4007FAD
:1024B00004D018F0020F01D044F0020416F4806F2B
:1024C00004D018F0040F01D044F0040416F4006F97
:1024D00029D018F0700F26D008F07000402815D0D1
:1024E00006DC102809D020280AD0302816D10AE0AE
:1024F00050280ED0602811D10EE044F008040DE001
:1025000044F010040AE044F0200407E044F04004E2
:1025100004E044F0800401E044F480742868816998
:1025200021F070018161296804204860002C05D0E9
:10253000686A204368622846FFF718FEBDE8F09FEE
:1025400070B50446002C03D094F8200010B104E0CC
:10255000012070BD204600F0A7F82068016821F036
:102560000201016000F0CAFE0546206840684FF095
:10257000050610F0020F11D000F0C0FE401B0A2823
:1025800007D9606A40F40030606284F8206001205E
:1025900070BD2068406810F0020FEDD1206801681E
:1025A00041F00101016000F0A9FE05462068406885
:1025B00010F0010F11D100F0A1FE401B0A2807D92D
:1025C000606A40F40030606284F82060012070BDD1
:1025D0002068406810F0010FEDD0207E01283FD028
:1025E0002068016821F080010160607E01283DD0F3
:1025F0002068016821F040010160A07E01283BD0E5
:102600002068016821F020010160E07E012839D0B6
:102610002068016841F010010160207F012837D057
:102620002068016821F008010160607F012835D031
:102630002068016821F004010160E168A068626916
:1026400008432169114308436168491E0843216812
:10265000C86100206062012084F82000002070BD65
:102660002068016841F080010160BEE720680168D0
:1026700041F040010160C0E72068016841F020019D
:102680000160C2E72068016821F010010160C4E721
:102690002068016841F008010160C6E72068016810
:1026A00041F004010160C8E710B586B0044614216A
:1026B00001A8FDF7CFFD52492068884249D1514811
:1026C0000068401C4F4908600846006801280FD187
:1026D00000BF002000904C48006840F000704A495C
:1026E00008600846006800F00070009000BF00BF5E
:1026F00000BF0020009044481038006840F00800F7
:102700004149103908600846006800F00800009050
:1027100000BF00BF03200190022002900020039020
:10272000032004900920059001A9384800F0D0FC4E
:1027300000220121132001F0AFF9132001F09EF9CE
:1027400000220121142001F0A7F9142001F096F9CC
:1027500054E02F492068884250D100BF00200090EB
:102760002948006840F080602749086008460068F2
:1027700000F08060009000BF00BF22480068401C4D
:10278000204908600846006801280FD100BF0020DA
:1027900000901D48006840F000701B490860084622
:1027A000006800F00070009000BF00BF00BF002074
:1027B000009015481038006840F0020012491039A6
:1027C00008600846006800F00200009000BF00BFEB
:1027D00060200190022002900020039003200490CA
:1027E0000920059001A90B4800F072FC002201218C
:1027F000402001F051F9402001F040F906B010BD31
:10280000006400400000002040380240000C0240FC
:1028100000680040000402407047000010B58AB014
:1028200004460020019002906F480BF0B6FE6F48FE
:1028300084427DD101AB03AA0021FFF798FC0398E5
:10284000A0F20120062814D2DFE800F0927503AE52
:1028500014559DF807009DF8063040EA032002B2A7
:102860009DF805009DF8043040EA0321604807F018
:102870005FFB99E05F4880885E4908809DF805000D
:102880009DF8041040EA01205A4988809DF807000D
:102890009DF8061040EA012000B25649C8809DF814
:1028A0000A0008729DF809009DF8081040EA01200E
:1028B00000B2514908804F4880884E490988401A23
:1028C00010F5805F03DA4B48C068401C01E04948BE
:1028D000C0684849C860084680880988401AB0F531
:1028E000805F03DD4348C068401E01E04148C06886
:1028F0004049C86058E09DF805009DF8041040EA82
:1029000001203E4988809DF807009DF8061040EAA6
:10291000012000B23949C8809DF80A0008729DF86C
:1029200009009DF8081040EA012000B2344900E097
:102930003BE0088038E09DF805009DF8041040EA6F
:102940000120304988809DF807009DF8061040EA74
:10295000012000B22B49C8800846B0F9060000EEFD
:10296000100AB8EEC00A2248B03880ED010A1BE018
:102970009DF805009DF8041040EA0121214881825C
:102980009DF807009DF8061040EA012001B21D489D
:10299000C182B0F9160000EE100AB8EEC00A144861
:1029A000B03880ED170A00BF1CE01748844219D1E7
:1029B00001AB03AA0021FFF7DAFB0398092810D125
:1029C0009DF805009DF8041040EA01200F490870A9
:1029D0009DF807009DF8061040EA01200C49087098
:1029E00000BF00BF0AB010BDC40800209003002043
:1029F000C00E00206C080020080000207C08002089
:102A00000A0000208C080020B80300201C010020D0
:102A10001D01002070477047704770B5044694F858
:102A20002000012805D0606A40F400206062012087
:102A300070BD022084F820002068016821F00101A7
:102A4000016000F05BFC05462068406810F0010F53
:102A500012D000F053FC401B0A2808D9606A40F4E9
:102A600000306062052084F82000012070BD2068DD
:102A7000406810F0010FECD10020606270BD70471B
:102A80007047704770477047704770472DE9F041B5
:102A90000446A66D00F032FC054694F83500002788
:102AA000022806D08020606584F834700120BDE8DB
:102AB000F0812068016821F01601016020684169F9
:102AC00021F080014161206C08B9A06C20B1206820
:102AD000016821F0080101602068016821F001010E
:102AE00001602068006810F0010F12D000F006FCB1
:102AF000401B052808D92020606584F83470032025
:102B000084F83500BDE8F0812068006810F0010FFE
:102B1000ECD194F85C003F2101FA00F0B06084F839
:102B20003470012084F835000020BDE8F0810000F9
:102B30002DE9F84304464FF00008CDF800807648B0
:102B40004FF416510068B0FBF1F7A56D2E6894F8AC
:102B50005C00082101FA00F0304211D020680268C0
:102B600012F0040F0CD0026822F00402026094F804
:102B70005C0001FA00F0A860606D40F00100606543
:102B800094F85C004FF0010909FA00F0304209D0D6
:102B90002168496911F0800F04D0A860606D40F091
:102BA0000200606594F85C1004208840304209D02F
:102BB0002168096811F0020F04D0A860606D40F030
:102BC0000400606594F85C1010208840304224D0E6
:102BD0002168096811F0080F1FD0A86020680168FB
:102BE00011F4802F0DD0006810F4002F04D0A16CD8
:102BF00099B12046884710E0216C71B12046884782
:102C00000BE0016811F4807F03D1016821F0080115
:102C10000160216C09B12046884794F85C1020209F
:102C20008840304251D02168096811F0100F4CD013
:102C3000A86094F8350005280DD02068016811F4CB
:102C4000802F32D0006810F4002F29D0E16B59B3E7
:102C50002046884739E02068016821F016010160AC
:102C60002068416921F080014161206C08B9A06CA5
:102C700020B12068016821F00801016094F85C002F
:102C80003F2101FA00F0A86084F8348084F8359080
:102C9000216D00293ED001B02046BDE8F043084731
:102CA000616C09B1204688470FE0016811F4807F0C
:102CB00007D1016821F01001016084F8348084F8A4
:102CC0003590E16B09B120468847606D002821D01E
:102CD000606D10F0010F15D0052084F835002068D4
:102CE000016821F0010101600098401C0090B84289
:102CF00004D82068006810F0010FF5D184F8348002
:102D000084F83590E16C002904D001B02046BDE87C
:102D1000F0430847BDE8F883880300202DE9F0411F
:102D2000044600F0EBFA0546DCB1002684F8346076
:102D3000022084F835002068016821F0010101605B
:102D40002068006810F0010F13D000F0D7FA401B84
:102D5000052809D920206065032084F83500BDE8E6
:102D6000F0810120BDE8F0812068006810F0010FBB
:102D7000EBD121680868234A1040A3686268D4F840
:102D800010C01A43E36843EA0C031A4363691A4309
:102D9000A3691A43E3691A43236A1A431043626A18
:102DA000042A03D1236BE26A1A43104308602068A7
:102DB000406920F00701606A40EA01050127042804
:102DC0000ED1A06A0543E06A50B12046FEF7F8FC38
:102DD00030B14020606584F835700120BDE8F08195
:102DE000206845612046FEF7D1FC94F85C103F2234
:102DF00002FA01F18160666584F835700020BDE853
:102E0000F08100003F8010F070B504460025A66DEB
:102E100094F8340001280DD0012084F8340094F88F
:102E200035C00020BCF1010F06D084F83400022523
:102E3000284670BD022070BD4FF0020C84F835C0EA
:102E400060652046FEF750FD94F85C003F2101FAD2
:102E500000F0B0602068016841F016010160206850
:102E6000416941F080014161206C20B12068016816
:102E700041F0080101602068016841F00101016032
:102E8000D6E7000070B5044600F038FA0546B4F104
:102E9000FF3F02D004480078044400F02FFA401BA2
:102EA000A042FAD370BD00007C0300202DE9F04160
:102EB00004460F46DFF8988098F8180001280AD0D9
:102EC000012088F818004CF25030FEF72DFE024623
:102ED000100003D035E00220BDE8F0814FF0FF3054
:102EE000386020681B4E012815D0A568E06828448A
:102EF000A84224D9217C2846FEF728FD4CF2503008
:102F0000FEF712FE0246306820F0FA003060100032
:102F10000FD03D6013E0207C6168FEF76BFD4CF242
:102F20005030FEF701FE0246306820F004003060A9
:102F300005E06D1CA168E0680844A842DAD8FEF7F5
:102F40002DFD002088F818001046BDE8F081000033
:102F5000A4100020103C02400348016841F00041E9
:102F60000160002070470000103C02402DE9F04154
:102F70000646884614461D461A4F387E012807D05B
:102F8000012038764CF25030FEF7CEFD18B115E036
:102F90000220BDE8F081AEB1012E18D0022E1BD068
:102FA00022462B464046FEF749FD4CF25030FEF7D4
:102FB000BBFD0D490A6822F001020A600021397642
:102FC000BDE8F081E1B24046FEF728FDEDE7A1B291
:102FD0004046FEF74BFDE8E721464046FEF758FD28
:102FE000E3E70000A4100020103C02400020084944
:102FF0000A6812F0004F09D0074A064B1360074BCE
:103000001360096811F0004F00D0012070470000E4
:10301000103C024023016745043C0240AB89EFCDE0
:1030200010B50446102C11D11D48007840F0010065
:103030001B4908701B48007840F0010019490870CE
:103040001948007858B30AF0B9FE28E0202C0BD1BB
:103050001648007840F001001449087012480078C2
:10306000E8B10AF0ABFE1AE0082C18D1104800783D
:1030700040F001000E4908700846007800F0010099
:10308000087060B10846007820F00100087008461A
:10309000007840F00200087006480BF05BF810BDA5
:1030A0004200002043000020450000204100002095
:1030B00044000020D409002010B504490A680242E7
:1030C00002D00860FFF7ACFF10BD0000143C0140C7
:1030D0002DE9F84F0022DFF80082DFF80092DFF8D8
:1030E00000A24FF0030E0F27012303FA02F50B682D
:1030F0002B40AB427DD1D1F804C0BCF1020F02D00D
:10310000BCF1120F12D14FEAD20C00EB8C0CDCF8A0
:1031100020605407E40E07FA04FB26EA0B06D1F8F8
:1031200010B00BFA04F43443CCF8204006684FEAA0
:10313000420C0EFA0CF4A64391F804B00BF0030B0A
:103140000BFA0CFB4BEA060606604E68012E05D012
:10315000022E03D0112E01D0122E11D18668A64363
:10316000D1F80CB00BFA0CFB4BEA060686604668F9
:1031700026EA05050E79C6F30016964035434560EC
:10318000C56825EA04048D6805FA0CFC4CEA040CB9
:10319000C0F80CC0D1F804C01CF0805F7DD0D8F816
:1031A00000C04CF4804CC8F800C0D8F800C00CF443
:1031B000804CCDF800C022F0030C0CF1804404F5E3
:1031C0009834D4F808C895072D0F07FA05F62CEAAD
:1031D0000606A0F1804CBCF5003C64D0A0F1804C08
:1031E000BCF5013C62D0A0F1804CBCF5023C60D043
:1031F00000E052E0A0F1804CBCF5033C5CD0A0F1B3
:10320000804CBCF5043C5AD0A0F1804CBCF5053C88
:1032100058D0A0F1804CBCF5063C56D0A0F1804CB3
:10322000BCF5073C54D04FF0080C0CFA05FC4CEAF6
:10323000060CC4F808C8D9F800C02CEA030C4C6886
:1032400014F4803F01D04CEA030CC9F800C0254CAF
:10325000D4F800C02CEA030C4D6815F4003F01D0EF
:103260004CEA030CC4F800C0DAF800C02CEA030CE6
:103270004C6814F4801F01D04CEA030CCAF800C05B
:10328000194CD4F800C02CEA030C4D6815F4001F4B
:1032900001D04CEA030CC4F800C0521C102AFFF401
:1032A00023AFBDE8F88F4FF0000CBEE74FF0010CE4
:1032B000BBE74FF0020CB8E74FF0030CB5E74FF057
:1032C000040CB2E74FF0050CAFE74FF0060CACE78B
:1032D0004FF0070CA9E7000044380240003C0140D1
:1032E000083C0140043C01400C3C0140002A01D054
:1032F000816170470904816170470000014880685E
:10330000704700007C03002070B50446002C04D0F8
:1033100094F83D00002510B106E0012070BD84F84E
:103320003C50204600F0D6FA242084F83D00206866
:10333000016821F00101016000F0B4FC544B6168A8
:10334000994203D85349884203D304E05249884242
:1033500001D2012070BD5149B0FBF1F12268D2F8D1
:1033600004C02CF03F0C4CEA010CC2F804C06268A7
:103370009A4201D84A1C07E04FF4967251434FF429
:103380007A72B1FBF2F14A1C2168D1F820C02CF00E
:103390003F0C42EA0C020A626168994210D8490067
:1033A000401EB0FBF1F2521CC2F30B02042A01D200
:1033B000042026E0B0FBF1F0401CC0F30B0020E03D
:1033C000A268002A50D001EBC10303EB0113A0F166
:1033D000010CBCFBF3F35B1C43F480431B051B0D8A
:1033E0004AD0002A4AD001EBC10202EB0111401E73
:1033F000B0FBF1F0401CC0F30B0040F4804040F4FF
:1034000000402168CA6922F0FF0222F44F421043B3
:10341000C861216AE06901432068026822F0C002A5
:1034200011430160E168206901432068826822F04D
:10343000FF0222F4034211438160A16960690143E4
:103440002068C26822F0FF021143C1602068016851
:1034500041F0010101602564202084F83D002563CE
:1034600084F83E50002070BD01EB4103A0F1010C37
:10347000BCFBF3F35B1CB1E70120C2E701EB4101A8
:10348000401EB0FBF1F0401CC0F30B00B7E700009A
:10349000A086010080841E0000093D0040420F000C
:1034A0002DE9FF4F83B004468A469346DDF84490E9
:1034B000DDF84080129EFFF721FF054694F83D009D
:1034C000202803D007B00220BDE8F08F1923012285
:1034D000A0492046009501F0B9FF18B107B00220BD
:1034E000BDE8F08F94F83C00012808D0012084F852
:1034F0003C002068016811F0010F04D007E007B01C
:103500000220BDE8F08F016841F0010101602068F0
:10351000016821F400610160222084F83D00402010
:1035200084F83E0000272764C4F82480A4F82A9079
:10353000608D20858848E062019500965A46514684
:103540002046069B01F05AFE18B107B00120BDE8E5
:10355000F08F208D10B3012829D0022835D02068A3
:10356000416980690290208D002800F0E880DFF832
:10357000EC81208D032800F2B780012834D0022886
:103580004AD03346002241462046009501F05EFFB6
:1035900000286CD007B00120BDE8F08F2068416999
:1035A00081690291016841F400710160DBE72068E4
:1035B000016821F48061016020684169816902919C
:1035C000016841F400710160CDE72068016821F4D1
:1035D000806101602068016841F400610160206839
:1035E000416980690290BEE72A463146204601F0D3
:1035F000EEFF18B107B00120BDE8F08F2068006928
:10360000616A0870606A401C6062208D401E2085DF
:10361000608D401E60858EE0334600224146204684
:10362000009501F013FF18B107B00120BDE8F08F3D
:103630002068016841F40071016020680069616AD6
:103640000870606A401C6062218D491E2185618D71
:10365000491E6185216809690170606A401C6062C9
:10366000208D401E2085608D401E608563E02068AF
:10367000016821F48061016020680069616A087056
:10368000606A401C6062208D401E2085608D401E57
:1036900060853346002241462046009501F0D6FE63
:1036A00018B107B00120BDE8F08F2068016841F42F
:1036B0000071016020680069616A0870606A401CDE
:1036C0006062218D491E2185618D491E61852168B9
:1036D00009690170606A401C6062208D401E20856F
:1036E000608D401E608526E02A463146204601F066
:1036F0006EFF18B107B00120BDE8F08F20680069A7
:10370000616A0870606A401C6062218D491E2185D3
:10371000618D491E61852268516911F0040F0AD03C
:1037200011690170606A401C6062208D401E208516
:10373000608D401E6085208D00287FF41AAF202008
:1037400084F83D0084F83E7084F83C7007B0002097
:10375000BDE8F08F020010000000FFFF0400010030
:103760002DE9FF4F83B004468A469346DDF8449026
:10377000DDF84080129EFFF7C1FD054694F83D003C
:10378000202803D007B00220BDE8F08F19230122C2
:103790004E492046009501F059FE18B107B00220AD
:1037A000BDE8F08F94F83C00012808D0012084F88F
:1037B0003C002068016811F0010F04D007E007B059
:1037C0000220BDE8F08F016841F00101016020682E
:1037D000016821F400610160212084F83D0040204F
:1037E00084F83E0000272764C4F82480A4F82A90B7
:1037F000608D20853648E062019500965A46514614
:103800002046069B01F094FD18B107B00120BDE8E9
:10381000F08F208D002836D02A463146204601F010
:1038200014FF58B1206C042804D12068016841F4C9
:103830000071016007B00120BDE8F08F606A216867
:1038400000780861606A00F1010CC4F824C0208D82
:10385000401E80B22085618D491E618523685969AB
:1038600011F0040F0CD058B19CF800001861606A88
:10387000401C6062208D401E2085608D401E60854A
:10388000208D0028C8D12A463146204601F0B0FDDF
:1038900058B1206C042804D12068016841F40071FB
:1038A000016007B00120BDE8F08F2068016841F495
:1038B00000710160202084F83D0084F83E7084F897
:1038C0003C7007B00020BDE8F08F0000020010003F
:1038D0000000FFFF10B586B00446142101A8FCF7D4
:1038E000B9FC2A49206888424DD100BF00200090D1
:1038F0002748006840F00400254908600846006831
:1039000000F00400009000BF00BF00BF0020009046
:103910000846006840F0010008600846006800F0B2
:103920000100009000BF00BF4815019012200290D6
:1039300001200390032004900420059001A915485C
:10394000FFF7C6FB4FF48070019012200290012017
:103950000390032004900420059001A90E48FFF76E
:10396000B7FB00BF0020009009481030006840F409
:1039700000000749103108600846006800F40000A4
:10398000009000BF00BF06B010BD0000005C00400A
:1039900030380240000802400000024002488168BE
:1039A00002781144816070477C03002010B50B48F9
:1039B000016841F400710160016841F480610160B7
:1039C000016841F480710160032000F099F8032040
:1039D00000F006F800F026F8002010BD003C024080
:1039E00070B504460D4D4FF47A712878B1FBF0F0B4
:1039F0000B490968B1FBF0F000F0B0FD08B10120FF
:103A000070BD102C07D200222146501E00F044F851
:103A10006C60002070BD012070BD00007C030020A0
:103A20008803002008B500BF0020009012480068FD
:103A300040F48040104908600846006800F4804067
:103A4000009000BF00BF00BF00200090081F00686A
:103A500040F08050091F08600846006800F0805060
:103A6000009000BF00BF052000F04AF800220321AB
:103A7000481F00F011F808BD4438024000280ADB56
:103A800000F01F01012202FA01F14009800000F15B
:103A9000E020C0F80011704710B4184B1B68C3F346
:103AA0000223C3F1070CBCF1040F01D94FF0040C41
:103AB0001C1D072C01D2002300E0DB1E012404FAA8
:103AC0000CFCACF1010C0CEA0101994004FA03F37F
:103AD0005B1E1A401143002806DB00F1E0200901BB
:103AE00080F8001410BC704700F00F0000F1E020D7
:103AF000090180F8141D10BC704700000CED00E0B7
:103B000000F00700064A11684FF6FF03194041EA2A
:103B1000002040F0FD7040F08060106070470000B1
:103B20000CED00E02DE9F04704460D46002C13D0C3
:103B3000DFF85091D9F80000EFB200F00F00A84272
:103B40000DD289F80070D9F8000000F00F00A842EB
:103B500005D00120BDE8F0870120BDE8F08720688E
:103B6000494E10F0020F14D010F0040F03D030684B
:103B700040F4E0503060207810F0080F03D0306837
:103B800040F4604030603068A16820F0F0000843E5
:103B90003060207810F0010F3ED060683B4901286A
:103BA00008D002280DD003280BD0096811F0020FAD
:103BB00028D00AE0096811F4003F06D10120BDE8D1
:103BC000F087096811F0007F19D0316821F00301F6
:103BD00008433060FFF792FB80463068616800F070
:103BE0000C00B0EB810F17D041F2883AFFF786FB4B
:103BF000A0EB0800504508D90320BDE8F08701205C
:103C0000BDE8F0870120BDE8F0873068616800F00A
:103C10000C00B0EB810FE9D1D9F8000000F00F00E3
:103C2000A8420AD989F80070D9F8000000F00F0006
:103C3000A84202D00120BDE8F087207810F0040FE0
:103C400005D03068E16820F4E05008433060207807
:103C500010F0080F06D03068216920F4604040EA77
:103C6000C100306000F03EF83168094AC1F3031129
:103C7000515CC840074908600320FFF7B1FE0020EF
:103C8000BDE8F087003C024008380240003802409E
:103C900021F00008880300200148006870470000F8
:103CA0008803002000B5FFF7F7FF04490968044ABC
:103CB000C1F38221515CC84000BD000008380240B9
:103CC00031F0000800B5FFF7E7FF04490968044A2E
:103CD000C1F34231515CC84000BD000008380240C9
:103CE00031F0000810B51748006810F00C011648B4
:103CF00016D0164B042912D0082911D1144C216872
:103D000001F03F02216811F4800F0AD02068C0F34F
:103D10008810A0FB03010023FCF752FA09E01846C3
:103D200010BD21680023C1F38811A1FB0001FCF73D
:103D300047FA2168C1F30141491C4900B0FBF1F089
:103D400010BD0000083802400024F400001BB7003A
:103D5000043802402DE9F84F0446002C10D020789A
:103D6000FA4D10F0010F64D0F948016801F00C0120
:103D700004290DD0006800F00C00082803D011E0E1
:103D80000120BDE8F88FF348006810F4800F09D0D7
:103D9000286810F4003F4CD06068002849D1012009
:103DA000BDE8F88F6068B0F5803F14D0B0F5A02F63
:103DB00016D0286820F480302860286820F48020FD
:103DC0002860606810B3FFF799FA0646286810F477
:103DD000003F0ED02DE0286840F480302860F0E7E6
:103DE000286840F480202860286840F480302860EB
:103DF000E7E7FFF783FA801B642802D90320BDE8B8
:103E0000F88F286810F4003FF3D012E0FFF776FA3D
:103E10000646286810F4003F0BD0FFF76FFA801BAE
:103E2000642802D90320BDE8F88F286810F4003F09
:103E3000F3D12078C84F10F0020F4FF0000856D091
:103E4000C348016811F00C0F15D0006800F00C0099
:103E5000082804D1BF48006810F4800F0BD0E06838
:103E600078B301203860FFF749FA0646286810F059
:103E7000020F12D01DE0286810F0020F05D0E06894
:103E8000012802D00120BDE8F88F2868216920F0C0
:103E9000F80040EAC100286029E0FFF72FFA801BF4
:103EA000022802D90320BDE8F88F286810F0020F1D
:103EB000F3D02868216920F0F80040EAC1002860AA
:103EC00015E0FFE7C7F80080FFF718FA06462868F4
:103ED00010F0020F0BD0FFF711FA801B022802D955
:103EE0000320BDE8F88F286810F0020FF3D1207886
:103EF00010F0080F33D09948DFF864926169B9B1C6
:103F000001210160FFF7FAF90646D9F8000010F028
:103F1000020F24D1FFF7F2F9801B022802D90320F7
:103F2000BDE8F88FD9F8000010F0020FF2D016E0CB
:103F3000C0F80080FFF7E2F90646D9F8000010F05B
:103F4000020F0CD0FFF7DAF9801B022802D90320F8
:103F5000BDE8F88FD9F8000010F0020FF2D12078F8
:103F600010F0040F73D04FF00009DFF8F8A1DAF871
:103F7000000010F0805F0CD1DAF8000040F08050B3
:103F8000CAF80000DAF8000000F0805000904FF00E
:103F90000109DFF8D4B1DBF8000010F4807F1AD1FA
:103FA000DBF8000040F48070CBF80000FFF7A6F9C2
:103FB0000646DBF8000010F4807F0CD1FFF79EF975
:103FC000801B022802D90320BDE8F88FDBF800002F
:103FD00010F4807FF2D0A068DFF890B1012818D0EB
:103FE00005281DD0DBF8000020F00100CBF8000010
:103FF000DBF8000020F00400CBF80000A06838B324
:10400000FFF77CF90646DBF8000010F0020F14D031
:104010003CE0DBF8000040F00100CBF80000EDE7E9
:10402000DBF8000040F00400CBF80000DBF80000F3
:1040300040F00100CBF80000E0E7FFF75FF9811BDB
:1040400041F28830814204D90320BDE8F88F26E090
:1040500005E0DBF8000010F0020FEED016E0FFF7ED
:104060004DF90646DBF8000010F0020F0ED0FFF706
:1040700045F9811B41F28830814202D90320BDE815
:10408000F88FDBF8000010F0020FF0D1B9F1010F4A
:1040900005D1DAF8000020F08050CAF80000A069CD
:1040A000E8B32B49096801F00C0108296BD00228FC
:1040B00010D0C7F86080FFF721F90446286810F097
:1040C000007F5ED0FFF71AF9001B022855D90320A4
:1040D000BDE8F88FC7F86080FFF710F9064628683A
:1040E00010F0007F0BD0FFF709F9801B022802D9DE
:1040F0000320BDE8F88F286810F0007FF3D1216A13
:10410000E069A26A0843616A4FF0FF33890103EB5B
:10411000520241EA0241084394F82C1000E030E0DA
:1041200040EA01610B48016001203866FFF7E6F8BC
:104130000446286810F0007F23D1FFF7DFF8001B4A
:10414000022815D90320BDE8F88F1CE00038024092
:10415000083802400438024000004742800E4742BF
:10416000743802404038024000700040703802400D
:10417000286810F0007FE0D003E0286810F0007F8E
:10418000A0D10020DFE70120DDE770B50446002C58
:1041900005D00025A56294F8510010B106E0012079
:1041A00070BD84F85050204600F030F8022084F8AA
:1041B00051002068016821F040010160A168606839
:1041C00022690843E1681143084361690843218B70
:1041D00001F400710843E1690843216A0843A16AB8
:1041E000084321680860A069042101EA1040616A5F
:1041F0000843216848602068C16921F40061C161F9
:104200006565012084F85100002070BD10B586B0AE
:104210000446142101A8FCF71DF84B492068884288
:104220007ED100BF002000904848006840F48050D4
:10423000464908600846006800F48050009000BFBE
:1042400000BF00BF0020009040481438006840F0D4
:1042500002003E49143908600846006800F0020078
:10426000009000BF00BF00BF00200090084600681B
:1042700040F0010008600846006800F0010000906E
:1042800000BF00BF1820019002200290012003907F
:10429000032004900520059001A92D48FEF718FF82
:1042A00080200190022002900120039003200490BE
:1042B0000520059001A92748FEF70AFF264827494F
:1042C00008604FF0C0604860002124488160C160F0
:1042D0004FF480610161002141618161C1614FF44E
:1042E0004031016200214162FEF718FD08B1FDF77F
:1042F0002CFB00BF1948E064846300BF16481830E7
:10430000174908604FF0C060486040211448816040
:104310000021C1604FF4806101610021416100E032
:1043200010E08161C1614FF40031016200214162FE
:10433000FEF7F4FC08B1FDF708FB00BF0848A064D5
:10434000846300BF06B010BD003001404438024015
:104350000004024000000240406402408C0400203F
:10436000EC0400202DE9F84F04460A9E8A46934645
:104370001F4601254FF0000894F8500001280ED088
:10438000012084F85000FEF7B9FF814694F85100EF
:10439000616801280ED0B1F5827F07D102E00220CA
:1043A000BDE8F88FA16809B9042803D04FF00208CE
:1043B00000F0CBB8BAF1000F1DD0BBF1000F1AD03E
:1043C000380018D094F85100042802D0052084F851
:1043D000510000206065C4F838B0E787A787C4F8AB
:1043E00030A0E786A786206460642068016811F029
:1043F000400F03D006E04FF00108A6E0016841F04D
:1044000040010160E068B0F5006F05D060680028E9
:1044100048D0012F46D07EE0606808B1012F3AD124
:10442000206B21680088C860206B801C2063E08EB0
:10443000401EE0862FE02068816811F0020F0DD049
:10444000E18E59B1012D09D1216B0988C160206B22
:10445000801C2063E08E401EE08600252068816875
:1044600011F0010F0BD0E18F49B1C068A16B08803A
:10447000A06B801CA063E08F401EE0870125FEF743
:104480003DFFA0EB0900B04205D3B6F1FF3F02D0DB
:104490004FF0030859E0E08E0028CCD1E08F0028CF
:1044A000C9D13EE0206B216800780873206B401C66
:1044B0002063E08E401EE0862DE02068816811F0C8
:1044C000020F0DD0E18E59B1012D09D1216B097870
:1044D0000173206B401C2063E08E401EE0860025A7
:1044E0002068816811F0010F0BD0E18F49B1C068DD
:1044F000A16B0870A06B401CA063E08F401EE0879A
:104500000125FEF7FBFEA0EB0900B04202D3B6F195
:10451000FF3F11D186B1E08E0028CED1E08F002878
:10452000CBD14A463146204605F020FA38B14FF04B
:1045300001082020606508E04FF0030805E0A0684E
:1045400018B92068C16880680090012084F8510083
:10455000002084F850004046BDE8F88F401EB0F1BE
:10456000807F01D3012070474FF0E0214861044A69
:10457000F02010700020886107200861002070473B
:1045800023ED00E07047704730B490F83C20012ADA
:104590001ED0012480F83C40022280F83D200268B1
:1045A000D2F804C093682CF0700C0D6845EA0C0C2E
:1045B00023F0800349681943C2F804C0026891607F
:1045C00080F83D40002180F83C1030BC002070474E
:1045D00030BC0220704710B50446002C03D094F87C
:1045E0003D0010B107E0012010BD002084F83C0020
:1045F000204600F00DF8022084F83D00211D2068BF
:1046000005F00CFB012084F83D00002010BD0000E7
:1046100038B5044623492068884218D100BF0020DD
:1046200000902148006840F002001F4908600846D9
:10463000006800F00200009000BF00BF00220121CE
:104640001D20FFF729FA1D20FFF718FA29E0174966
:10465000206888420FD100BF0020009012480068F7
:1046600040F01000104908600846006800F0100093
:10467000009000BF15E00E492068884211D100BFAC
:10468000002000900848001D006840F400300649F2
:10469000091D08600846006800F40030009000BF63
:1046A00000BF38BD00040040403802400010004008
:1046B00000440140022180F83D1001688A6802F040
:1046C0000702062A03D00A6842F001020A600121AB
:1046D00080F83D10002070470168CA6842F001026E
:1046E000CA600068816801F00701062903D00168EB
:1046F00041F0010101600020704770B5044694F854
:104700003C00012818D0012584F83C50022084F890
:104710003D002068826822F0770222F47F428260A6
:104720000868502832D00EDC20284DD006DC002846
:104730004AD010284DD147E0022070BD302843D028
:10474000402846D136E060282AD0702806D0B0F53F
:10475000805F3ED0B0F5005F3BD10BE0CB684A688C
:104760008968206805F0CFFA2068816841F07701F8
:1047700081602EE0CB684A688968206805F0C3FA3A
:104780002068816841F48041816022E0CA684968FC
:10479000206805F0A7FB5021206805F0BFFA18E05B
:1047A000CA684968206805F0B0FB6021206805F000
:1047B000B5FA0EE0CA684968206805F093FB40210D
:1047C000206805F0ABFA04E022680146104605F0C7
:1047D000A5FA84F83D50002084F83C0070BD704775
:1047E00070B50446206801694FF0000511F0020F12
:1047F00017D0C16811F0020F13D0E91E016101202A
:1048000020772068806910F0030F03D02046FFF75F
:10481000E6FF05E0204600F0D7F8204600F060F9FA
:1048200025772068016911F0040F18D0C16811F0D4
:10483000040F14D06FF0040101610220207720687A
:10484000806910F4407F03D02046FFF7C8FF05E0E1
:10485000204600F0B9F8204600F042F9257720689C
:10486000016911F0080F18D0C16811F0080F14D0B9
:104870006FF008010161042020772068C06910F002
:10488000030F03D02046FFF7AAFF05E0204600F003
:104890009BF8204600F024F925772068016911F083
:1048A000100F18D0C16811F0100F14D06FF0100164
:1048B0000161082020772068C06910F4407F03D090
:1048C0002046FFF78CFF05E0204600F07DF82046EB
:1048D00000F006F925772068016911F0010F09D071
:1048E000C16811F0010F05D06FF001010161204690
:1048F00000F018F92068016911F0800F09D0C16833
:1049000011F0800F05D06FF0800101612046FFF7A4
:1049100039FE2068016911F0400F09D0C16811F01B
:10492000400F05D06FF040010161204600F068F9AA
:104930002068016911F0200F0BD0C16811F0200F21
:1049400007D06FF0200101612046BDE87040FFF7FD
:104950001ABE70BD10B586B00446142101A8FBF73D
:1049600079FC15492068884224D100BF00200090BE
:104970001248006840F020001049086008460068AE
:1049800000F02000009000BF00BF402001900220F6
:10499000029001200390022004900320059001A9B9
:1049A0000748FEF795FB0748FFF784FE00210548FE
:1049B00000F097F806B010BD0044014030380240C6
:1049C00000140240CC050020704770B504460D4627
:1049D00094F83C0001280DD0012684F83C600220A8
:1049E00084F83D0042B1042A1AD0082A2DD00C2A9E
:1049F00053D13EE0022070BD2946206805F096F9AB
:104A00002068816941F0080181612068816921F095
:104A100004018161206881692A69114381613CE058
:104A20002946206805F0BAF92068816941F40061DF
:104A300081612068816921F48061816120688169D8
:104A40002A6941EA0221816127E02946206805F0B0
:104A5000E1F92068C16941F00801C1612068C169BC
:104A600021F00401C1612068C1692A691143C16153
:104A700013E02946206805F009FA2068C16941F46D
:104A80000061C1612068C16921F48061C161206851
:104A9000C1692A6941EA0221C16184F83D600020B0
:104AA00084F83C0070BD10B50446002C03D094F887
:104AB0003D0010B107E0012010BD002084F83C004B
:104AC000204600F00CF8022084F83D00211D2068EB
:104AD00005F0A4F8012084F83D00002010BD7047C7
:104AE000704710B504460122206805F0FDF82168E2
:104AF000A1F18040B0F5803004D0A1F18040B0F544
:104B0000823003D1486C40F40040486420688168DA
:104B100001F00701062903D0016841F0010101609D
:104B2000002010BD10B504462F480068082803DD9A
:104B300001202E4908600AE000231A46194618464B
:104B400008F082FA2A480178032008F0BBFA2948C5
:104B50000068401C2749086000F086FE2548006870
:104B60000D2190FBF1F201FB120068B91F480068AB
:104B7000012809D120480068012801D108F0CAF9AC
:104B8000FDF7A4F90AF0D4F81A480068072190FB51
:104B9000F1F201FB120060B909F0E2FD08F03AFB06
:104BA00016480078012802D109F0B4FE01E009F0AE
:104BB00017FB10480068322190FBF1F201FB120054
:104BC00008B9FCF73DFE0B480068B0F57A7F0ADBB8
:104BD0000020084908600548006820B902480068BC
:104BE000401C0149086010BD200200202402002062
:104BF000280200201C0200201402002010020020C5
:104C0000704710B5044620684169C1F3C01194F89B
:104C10003920212A0BD151B1416921F08001416134
:104C2000206B08B1FDF732FF204605F03AFA206804
:104C30004169C1F3801194F83A20222A0BD151B175
:104C4000416921F040014161606B08B1FDF71EFF31
:104C5000204605F018FA002010BD704770B50446D4
:104C6000002C04D094F83900002510B106E0012092
:104C700070BD84F83850204600F022F8242084F8D3
:104C800039002068C16821F40051C160204605F058
:104C900011FA2068016921F490410161206841699D
:104CA00021F02A0141612068C16841F40051C160CE
:104CB000E563202084F8390084F83A00002070BDB4
:104CC00010B586B00446142101A8FBF7C3FACD49FC
:104CD000206888427ED100BF00200090CA4800684A
:104CE00040F01000C84908600846006800F0100055
:104CF000009000BF00BF00BF00200090C2481438E1
:104D0000006840F00200C049143908600846006895
:104D100000F00200009000BF00BF00BF0020009024
:104D20000846006840F0010008600846006800F08E
:104D30000100009000BF00BF80200190022002907F
:104D400001200390032004900720059001A9AF489B
:104D5000FEF7BEF94FF4007001900220029001208E
:104D60000390032004900720059001A9A848FEF7AE
:104D7000AFF9A848A84908604FF0006048600021DA
:104D8000A5488160C1604FF48061016100214161EB
:104D90008161C1614FF40031016200214162FDF780
:104DA000BDFF08B1FCF7D1FD00BF9B486063846381
:104DB00000BF98483030994908604FF00060486063
:104DC0004021964881600021C1604FF480610161FB
:104DD000002100E01AE041618161C1614FF480313E
:104DE000016200214162FDF799FF08B1FCF7ADFDBA
:104DF00000BF8A482063846300BF00220121252070
:104E0000FEF74AFE2520FEF739FEF8E084492068C7
:104E100088423AD100BF002000907B48001F006804
:104E200040F400307849091F08600846006800F423
:104E30000030009000BF00BF00BF0020009072480B
:104E40001438006840F008006F49143908600846BB
:104E5000006800F00800009000BF00BF60200190D3
:104E60000220029001200390032004900720059067
:104E700001A96C48FEF72CF9002201212620FEF73B
:104E80000BFE2620FEF7FAFDB9E06749206888424C
:104E90005CD100BF002000905B48001F006840F418
:104EA00080205949091F08600846006800F48020E6
:104EB000009000BF00BF00BF00200090524814388F
:104EC000006840F004005049143908600846006842
:104ED00000F00400009000BF00BF4FF4406001905C
:104EE00002200290012003900320049007200590E7
:104EF00001A94E48FEF7ECF84D484E4908604FF0C6
:104F00000060486000214B488160C1604FF48061BF
:104F100001610021416181614FF48071C161090229
:104F2000016200214162FDF7F9FE08B1FCF70DFDB9
:104F300000BF40486063846300BF00220121272036
:104F4000FEF7AAFD2720FEF799FD58E03A492068B0
:104F5000884254D100BF002000902B48006840F0E8
:104F60002000294908600846006800F020000090F1
:104F700000BF00BF00BF0020009023481438006825
:104F800040F040002049143908600846006800F0ED
:104F90004000009000BF00BF00BF00200090084606
:104FA000006840F0040008600846006800F0040053
:104FB000009000BF00BF4815019002200290002021
:104FC0000390032004900820059001A91B48FEF7D8
:104FD0007FF84020019002200290002003900320DF
:104FE00004900820059001A91048FEF771F80022EE
:104FF00001214720FEF750FD4720FEF73FFD06B098
:1050000010BD00000010014044380240000402407E
:1050100000000240886402404C070020AC070020DA
:1050200000440040000C02400048004000080240DC
:10503000286002400C0800200014014000180240C3
:1050400037B582B00446134694F83A00202802D0BF
:1050500005B0022030BD039A002A36D0002B34D090
:1050600094F83800012833D0012084F83800A26277
:10507000A3850025E563222084F83A00616B164879
:10508000C863616B15480864616B1548C864606B40
:1050900005652068011D606BFDF7B6FE206801689C
:1050A0004168019184F83850C16841F48071C16051
:1050B0002068416941F0010141612068416941F086
:1050C0004001416105B0002030BD05B0012030BD78
:1050D00005B0022030BD00003FA000087DA0000800
:1050E000F59F0008704770472DE9F84304460D46C8
:1050F00091461E4694F83900202802D00220BDE8CF
:10510000F8834DB3B9F1000F26D094F83800012888
:1051100025D0012084F838000027E763212084F897
:105120003900FEF7EBF88046A4F82490A4F8269006
:10513000E08CA0B3E08C401EE084A068B0F5805FF6
:1051400010D04346002280212046009605F052F9F7
:10515000F0B10320BDE8F8830120BDE8F883022008
:10516000BDE8F8834346002280212046009605F0E2
:1051700041F910B10320BDE8F88328882168C0F305
:1051800008004860206908B16D1C05E0AD1C03E013
:10519000216815F8010B4860E08C0028CAD143460D
:1051A000002240212046009605F024F910B103208A
:1051B000BDE8F883202084F8390084F83870002096
:1051C000BDE8F88300BFFEE701684A6912F4806F0A
:1051D00011D06FF480624A6100210163202280F8BF
:1051E0003D2080F83E10026C42F00402026480F818
:1051F0003C10012070470020704700002DE9F84F57
:105200000446DDF828A00B9D0F469046994620687D
:10521000016841F4806101602068016841F4807197
:105220000160534600224FF001112046009500F026
:105230000DF910B10120BDE8F88F216807F0FE00DC
:105240000861DFF8E8B02B4652465946204600F088
:1052500057F910B10120BDE8F88F206841698069D5
:1052600000902A465146204600F0EFF950B1206CDC
:10527000042804D12068016841F400710160012014
:10528000BDE8F88F08F0FF06B9F1010F0DD02168D5
:105290004FEA182008612A465146204600F0D5F909
:1052A00070B1206C042803D007E02068066109E093
:1052B0002068016841F4007101600120BDE8F88FA9
:1052C000206806612A465146204600F0BEF950B1DA
:1052D000206C042804D12068016841F40071016049
:1052E0000120BDE8F88F2068016841F480710160F9
:1052F000534600224FF001112046009500F0A6F819
:1053000010B10120BDE8F88F2168F8B240F001002B
:1053100008612B4652465946204600F0F1F810B17C
:105320000120BDE8F88F0020BDE8F88F02000100E1
:105330002DE9F8430446DDF82090099F0D461646F6
:1053400098462068016841F4807101604B46002254
:105350004FF001112046009700F078F810B10120BD
:10536000BDE8F883216805F0FE0008613B464A4627
:105370001E49204600F0C4F810B10120BDE8F883B2
:1053800020684169806900903A464946204600F00D
:105390005CF950B1206C042804D12068016841F404
:1053A000007101600120BDE8F883F5B2B8F1010F8A
:1053B0000CD02168300A08613A464946204600F080
:1053C00044F970B1206C042803D007E0206805611F
:1053D00009E02068016841F4007101600120BDE826
:1053E000F883206805610020BDE8F8830200010011
:1053F00070B504460D4616462068406910F0040F4B
:1054000013D12046FFF7E0FE08B1012070BDB5F1D1
:10541000FF3F05D0FDF772FF801BA84207D835B1CA
:105420002068406910F0040FEBD0002070BD002010
:105430002063202184F83D1084F83E00216C41F067
:105440002001216484F83C00012070BD2DE9F04763
:105450000446DDF820900D4617461E46C5F3074862
:105460002068B8F1010F22D0806925EA000000040D
:10547000000C26D00020B84216D1B6F1FF3F06D06E
:10548000FDF73CFFA0EB0900B0421CD8DEB1B8F13B
:10549000010F28D02068806925EA00000004000C74
:1054A0002CD00020B842E8D00020BDE8F087406949
:1054B00025EA00000004000C01D00020DBE70120F9
:1054C000D9E70120D7E700202063202184F83D1090
:1054D00084F83E00216C41F02001216484F83C00F6
:1054E0000120BDE8F0872068406925EA000000043B
:1054F000000C01D00020D5E70120D3E70120D1E73F
:105500002DE9F04704460D4616461F46C5F30748E9
:105510002068B8F1010F26D0806925EA0000000458
:10552000000C3AD04FF000094FF0200A2068406983
:1055300010F4806F1ED02068016841F40071016092
:1055400021686FF480604861C4F8309084F83DA011
:1055500084F83E90206C40F00400206484F83C9075
:105560000120BDE8F087406925EA00000004000C36
:1055700013D0D7E7B6F1FF3F05D0FDF7BFFEC01B44
:10558000B0420DD866B1B8F1010F18D0206880691B
:1055900025EA00000004000CC8D10020BDE8F08717
:1055A000C4F8309084F83DA084F83E90206C40F020
:1055B0002000206484F83C900120BDE8F08720683A
:1055C000406925EA00000004000CAFD1E5E72DE9B1
:1055D000F04104460D4616462068406910F0400F21
:1055E00022D100274FF020082068406910F0100FEA
:1055F0000FD021686FF010004861276384F83D8068
:1056000084F83E70206C206484F83C700120BDE872
:10561000F081FDF773FE801BA84208D83DB12068D9
:10562000406910F0400FDFD00020BDE8F081276313
:1056300084F83D8084F83E70206C40F020002064A7
:1056400084F83C700120BDE8F08170B504460D4639
:1056500016462068406910F0800F13D12046FFF7EE
:10566000B3FD08B1012070BDB5F1FF3F05D0FDF7D6
:1056700045FE801BA84207D835B12068406910F06C
:10568000800FEBD0002070BD00202063202184F823
:105690003D1084F83E00216C41F02001216484F823
:1056A0003C00012070BD000008B502E0642007F056
:1056B00053FEFBF785FA0028F8D102E0642007F0DA
:1056C0004BFE08F0FDFC0028F8D1274AA2F10C019E
:1056D000101DFBF78FFA2549254801F0F7F9254AF7
:1056E00021490C392448FBF771F910212348C16185
:1056F000FEF74BFD08B1FCF728F9082220492148A4
:1057000004F074F80120204908701A48001F164B55
:10571000103B1E4A1E4900901E4808F0B9FA1C486A
:1057200090ED000A1C4880ED000A1C4880ED000A3C
:105730001B4880ED000A164890ED010A164880EDDE
:10574000010A164880ED010A154880ED010A10484B
:1057500090ED020A104880ED020A104880ED020A1E
:105760000F4880ED020A08BDBC090020CCEF0008FC
:10577000280A0020D4090020BC0A0020340400209C
:10578000200000202800002045000020B00A002052
:10579000A40A0020980A00208C0A0020800A002019
:1057A000740A002070B504460D461646308888B944
:1057B000184890ED000A184880ED000A154890ED51
:1057C000010A154880ED010A124890ED020A1248BC
:1057D00080ED020A324611490F4808F02FFA0E48B0
:1057E00090ED000A85ED000A90ED010A85ED010AB1
:1057F00090ED020A85ED020AB7EE000A84ED000A78
:10580000B7EE000A84ED010AB7EE000A84ED020A41
:1058100070BD0000EC090020E0090020980A00207B
:1058200091ED000A0E4A82ED000A91ED010A82ED27
:10583000010A91ED020A82ED020A92ED000A094A7C
:1058400082ED000A064A92ED010A064A82ED010A3B
:10585000034A92ED020A034A82ED020A70470000F1
:10586000EC090020E009002000B52DED048B81B08B
:10587000A4480068401CA34908600846006819282D
:1058800009DDA148D0ED040AB0EE600A08F050FB33
:1058900000209C4908609D48007800F0080050B145
:1058A0009A48007820F00800984908709649143109
:1058B0009748FBF751F99748007800F0040060B171
:1058C0009448007820F00400924908708E4A2032F3
:1058D000A2F11C019048FBF7E9F89048007800F02D
:1058E000040088B18D48007820F004008B490870CE
:1058F000854910318A48FBF76BFA8348D0ED040ADA
:10590000B0EE600A08F014FB86487F4B864A874950
:105910000090874808F0BCF9864890ED000A864858
:1059200080ED000A854890ED000A824880ED000A6B
:1059300090ED000A8248D0ED000A20EE200A7E4851
:10594000D0ED000A7E4890ED011A00EE810A7748FA
:10595000D0ED000A7A4890ED021A00EE810A7748ED
:1059600080ED000A734890ED010A734880ED010A4A
:10597000724890ED010A6F4880ED010A90ED010A2E
:105980006F48D0ED000A20EE200A6B48D0ED010AE6
:105990006B4890ED011A00EE810A6448D0ED010ACF
:1059A000674890ED021A00EE810A644880ED010A12
:1059B000604890ED020A604880ED020A5F4890ED71
:1059C000020A5C4880ED020A90ED020A5C48D0EDC4
:1059D000000A20EE200A5848D0ED020A584890EDFF
:1059E000011A00EE810A5148D0ED020A544890EDA8
:1059F000021A00EE810A514880ED020A424890EDF9
:105A0000050A10EE101A0846FAF778FD41EC190B5A
:105A1000B0EE490AF0EE690A05F0B4F9B0EE408A3A
:105A2000F0EE608A9FED470B53EC102B51EC180BF6
:105A3000FAF778FD02D29FED450A02E0324890ED78
:105A4000050A314880ED050A90ED060A10EE101A9D
:105A50000846FAF753FD41EC190BB0EE490AF0EE97
:105A6000690A05F08FF9B0EE408AF0EE608A9FED8A
:105A7000350B53EC102B51EC180BFAF753FD02D2F7
:105A80009FED320A02E0204890ED060A1E4880EDA4
:105A9000060A90ED070A10EE101A0846FAF72EFDD6
:105AA00041EC190BB0EE490AF0EE690A05F06AF90B
:105AB000B0EE408AF0EE608A9FED220B53EC102B83
:105AC00051EC180BFAF72EFD02D29FED200A02E0EE
:105AD0000D4890ED070A0C4880ED070A114B1B1D7D
